{
  "_format": "hh-sol-artifact-1",
  "contractName": "EntitlementRegistryDID",
  "sourceName": "contracts/Entitlement.sol",
  "abi": [
    {
      "inputs": [
        {
          "internalType": "address",
          "name": "_timelock",
          "type": "address"
        }
      ],
      "stateMutability": "nonpayable",
      "type": "constructor"
    },
    {
      "inputs": [],
      "name": "InvalidTimeWindow",
      "type": "error"
    },
    {
      "inputs": [],
      "name": "NotTimelock",
      "type": "error"
    },
    {
      "anonymous": false,
      "inputs": [
        {
          "indexed": true,
          "internalType": "bytes32",
          "name": "grantId",
          "type": "bytes32"
        },
        {
          "indexed": true,
          "internalType": "bytes32",
          "name": "didHash",
          "type": "bytes32"
        },
        {
          "indexed": true,
          "internalType": "bytes32",
          "name": "role",
          "type": "bytes32"
        },
        {
          "indexed": false,
          "internalType": "string",
          "name": "did",
          "type": "string"
        },
        {
          "indexed": false,
          "internalType": "uint64",
          "name": "revokedAt",
          "type": "uint64"
        },
        {
          "indexed": false,
          "internalType": "address",
          "name": "revokedBy",
          "type": "address"
        },
        {
          "indexed": false,
          "internalType": "string",
          "name": "reason",
          "type": "string"
        }
      ],
      "name": "GrantRevoked",
      "type": "event"
    },
    {
      "anonymous": false,
      "inputs": [
        {
          "indexed": true,
          "internalType": "bytes32",
          "name": "grantId",
          "type": "bytes32"
        },
        {
          "indexed": true,
          "internalType": "bytes32",
          "name": "didHash",
          "type": "bytes32"
        },
        {
          "indexed": true,
          "internalType": "bytes32",
          "name": "role",
          "type": "bytes32"
        },
        {
          "indexed": false,
          "internalType": "string",
          "name": "did",
          "type": "string"
        },
        {
          "indexed": false,
          "internalType": "uint64",
          "name": "start",
          "type": "uint64"
        },
        {
          "indexed": false,
          "internalType": "uint64",
          "name": "expiry",
          "type": "uint64"
        },
        {
          "indexed": false,
          "internalType": "bool",
          "name": "active",
          "type": "bool"
        },
        {
          "indexed": false,
          "internalType": "bytes32",
          "name": "descriptionHash",
          "type": "bytes32"
        }
      ],
      "name": "GrantUpserted",
      "type": "event"
    },
    {
      "anonymous": false,
      "inputs": [
        {
          "indexed": true,
          "internalType": "address",
          "name": "oldTimelock",
          "type": "address"
        },
        {
          "indexed": true,
          "internalType": "address",
          "name": "newTimelock",
          "type": "address"
        }
      ],
      "name": "TimelockUpdated",
      "type": "event"
    },
    {
      "inputs": [],
      "name": "ROLE_ADMIN",
      "outputs": [
        {
          "internalType": "bytes32",
          "name": "",
          "type": "bytes32"
        }
      ],
      "stateMutability": "view",
      "type": "function"
    },
    {
      "inputs": [],
      "name": "ROLE_SSH",
      "outputs": [
        {
          "internalType": "bytes32",
          "name": "",
          "type": "bytes32"
        }
      ],
      "stateMutability": "view",
      "type": "function"
    },
    {
      "inputs": [
        {
          "internalType": "bytes32",
          "name": "didHash",
          "type": "bytes32"
        },
        {
          "internalType": "bytes32",
          "name": "role",
          "type": "bytes32"
        }
      ],
      "name": "computeGrantId",
      "outputs": [
        {
          "internalType": "bytes32",
          "name": "",
          "type": "bytes32"
        }
      ],
      "stateMutability": "pure",
      "type": "function"
    },
    {
      "inputs": [
        {
          "internalType": "string",
          "name": "did",
          "type": "string"
        },
        {
          "internalType": "bytes32",
          "name": "role",
          "type": "bytes32"
        }
      ],
      "name": "computeGrantIdFromDid",
      "outputs": [
        {
          "internalType": "bytes32",
          "name": "",
          "type": "bytes32"
        }
      ],
      "stateMutability": "pure",
      "type": "function"
    },
    {
      "inputs": [
        {
          "internalType": "bytes32",
          "name": "grantId",
          "type": "bytes32"
        }
      ],
      "name": "getGrant",
      "outputs": [
        {
          "components": [
            {
              "internalType": "string",
              "name": "did",
              "type": "string"
            },
            {
              "internalType": "bytes32",
              "name": "didHash",
              "type": "bytes32"
            },
            {
              "internalType": "bytes32",
              "name": "role",
              "type": "bytes32"
            },
            {
              "internalType": "uint64",
              "name": "start",
              "type": "uint64"
            },
            {
              "internalType": "uint64",
              "name": "expiry",
              "type": "uint64"
            },
            {
              "internalType": "bool",
              "name": "active",
              "type": "bool"
            },
            {
              "internalType": "bool",
              "name": "revoked",
              "type": "bool"
            },
            {
              "internalType": "uint64",
              "name": "revokedAt",
              "type": "uint64"
            },
            {
              "internalType": "address",
              "name": "revokedBy",
              "type": "address"
            },
            {
              "internalType": "bytes32",
              "name": "descriptionHash",
              "type": "bytes32"
            }
          ],
          "internalType": "struct EntitlementRegistryDID.Grant",
          "name": "",
          "type": "tuple"
        }
      ],
      "stateMutability": "view",
      "type": "function"
    },
    {
      "inputs": [
        {
          "internalType": "string",
          "name": "did",
          "type": "string"
        },
        {
          "internalType": "bytes32",
          "name": "role",
          "type": "bytes32"
        }
      ],
      "name": "getGrantByDID",
      "outputs": [
        {
          "components": [
            {
              "internalType": "string",
              "name": "did",
              "type": "string"
            },
            {
              "internalType": "bytes32",
              "name": "didHash",
              "type": "bytes32"
            },
            {
              "internalType": "bytes32",
              "name": "role",
              "type": "bytes32"
            },
            {
              "internalType": "uint64",
              "name": "start",
              "type": "uint64"
            },
            {
              "internalType": "uint64",
              "name": "expiry",
              "type": "uint64"
            },
            {
              "internalType": "bool",
              "name": "active",
              "type": "bool"
            },
            {
              "internalType": "bool",
              "name": "revoked",
              "type": "bool"
            },
            {
              "internalType": "uint64",
              "name": "revokedAt",
              "type": "uint64"
            },
            {
              "internalType": "address",
              "name": "revokedBy",
              "type": "address"
            },
            {
              "internalType": "bytes32",
              "name": "descriptionHash",
              "type": "bytes32"
            }
          ],
          "internalType": "struct EntitlementRegistryDID.Grant",
          "name": "",
          "type": "tuple"
        }
      ],
      "stateMutability": "view",
      "type": "function"
    },
    {
      "inputs": [
        {
          "internalType": "bytes32",
          "name": "",
          "type": "bytes32"
        },
        {
          "internalType": "bytes32",
          "name": "",
          "type": "bytes32"
        }
      ],
      "name": "grantIdByDidRole",
      "outputs": [
        {
          "internalType": "bytes32",
          "name": "",
          "type": "bytes32"
        }
      ],
      "stateMutability": "view",
      "type": "function"
    },
    {
      "inputs": [
        {
          "internalType": "string",
          "name": "did",
          "type": "string"
        },
        {
          "internalType": "bytes32",
          "name": "role",
          "type": "bytes32"
        }
      ],
      "name": "isCurrentlyActiveByDID",
      "outputs": [
        {
          "internalType": "bool",
          "name": "",
          "type": "bool"
        }
      ],
      "stateMutability": "view",
      "type": "function"
    },
    {
      "inputs": [
        {
          "internalType": "string",
          "name": "did",
          "type": "string"
        },
        {
          "internalType": "bytes32",
          "name": "role",
          "type": "bytes32"
        },
        {
          "internalType": "string",
          "name": "reason",
          "type": "string"
        }
      ],
      "name": "revokeGrantByDID",
      "outputs": [],
      "stateMutability": "nonpayable",
      "type": "function"
    },
    {
      "inputs": [],
      "name": "timelock",
      "outputs": [
        {
          "internalType": "address",
          "name": "",
          "type": "address"
        }
      ],
      "stateMutability": "view",
      "type": "function"
    },
    {
      "inputs": [
        {
          "internalType": "address",
          "name": "newTimelock",
          "type": "address"
        }
      ],
      "name": "updateTimelock",
      "outputs": [],
      "stateMutability": "nonpayable",
      "type": "function"
    },
    {
      "inputs": [
        {
          "internalType": "string",
          "name": "did",
          "type": "string"
        },
        {
          "internalType": "bytes32",
          "name": "role",
          "type": "bytes32"
        },
        {
          "internalType": "uint64",
          "name": "start",
          "type": "uint64"
        },
        {
          "internalType": "uint64",
          "name": "expiry",
          "type": "uint64"
        },
        {
          "internalType": "bool",
          "name": "active",
          "type": "bool"
        },
        {
          "internalType": "bytes32",
          "name": "descriptionHash",
          "type": "bytes32"
        }
      ],
      "name": "upsertGrantByDID",
      "outputs": [
        {
          "internalType": "bytes32",
          "name": "grantId",
          "type": "bytes32"
        }
      ],
      "stateMutability": "nonpayable",
      "type": "function"
    }
  ],
  "bytecode": "0x608060405234801561001057600080fd5b5060405161124338038061124383398101604081905261002f9161009b565b6001600160a01b0381166100765760405162461bcd60e51b815260206004820152600a602482015269074696d656c6f636b3d360b41b604482015260640160405180910390fd5b600080546001600160a01b0319166001600160a01b03929092169190911790556100cb565b6000602082840312156100ad57600080fd5b81516001600160a01b03811681146100c457600080fd5b9392505050565b611169806100da6000396000f3fe608060405234801561001057600080fd5b50600436106100b45760003560e01c8063a9d376c411610071578063a9d376c4146101a3578063bf364d42146101e4578063d33219b414610204578063d391014b1461022f578063de3acb9b14610256578063e483ac041461026957600080fd5b8063038f6c28146100b95780630c6f615d146100f75780631a90f7541461011a5780637ba01edf1461015457806391cfaddd1461017b578063a890c91014610190575b600080fd5b6100e46100c7366004610aad565b600260209081526000928352604080842090915290825290205481565b6040519081526020015b60405180910390f35b61010a610105366004610b17565b61027c565b60405190151581526020016100ee565b6100e4610128366004610aad565b604080516020808201949094528082019290925280518083038201815260609092019052805191012090565b6100e47f45b9211b672b4d3484d904c571d9453dc70cf92fb5a6701433869cd72f489e1d81565b61018e610189366004610b62565b61038e565b005b61018e61019e366004610bdb565b6104f0565b6100e46101b1366004610c1a565b81516020928301206040805180850192909252818101929092528151808203830181526060909101909152805191012090565b6101f76101f2366004610b17565b6105c0565b6040516100ee9190610d14565b600054610217906001600160a01b031681565b6040516001600160a01b0390911681526020016100ee565b6100e47f2172861495e7b85edac73e3cd5fbb42dd675baadf627720e687bcfdaca02509681565b6100e4610264366004610dfa565b610738565b6101f7610277366004610e8a565b61091a565b600080848460405161028f929190610ea3565b6040518091039020905060006102cc8285604080516020808201949094528082019290925280518083038201815260609092019052805191012090565b6000818152600160205260409020600381015491925090600160801b900460ff16158061030457506003810154600160881b900460ff165b156103155760009350505050610387565b6003810154426001600160401b0390911611156103385760009350505050610387565b6003810154600160401b90046001600160401b03161580159061036e57506003810154600160401b90046001600160401b031642115b1561037f5760009350505050610387565b600193505050505b9392505050565b6000546001600160a01b031633146103b95760405163656a6d1560e11b815260040160405180910390fd5b600085856040516103cb929190610ea3565b6040518091039020905060006104088286604080516020808201949094528082019290925280518083038201815260609092019052805191012090565b6000818152600160205260409020805491925090819061042790610eb3565b905060000361044c578061043c888a83610f3e565b5060018101839055600281018690555b6003810180546001600160401b03428116600160901b90810269ffffffffffffffffffff60801b1990931692909217600160881b17928390556004840180546001600160a01b031916339081179091556040518a94889488947fdb6da8587859a6b8519d751d90e4d1a5a4d94addfaab4f7d4f71ed794362f259946104de948a9493909304909116918d908d90611027565b60405180910390a45050505050505050565b6000546001600160a01b0316331461051b5760405163656a6d1560e11b815260040160405180910390fd5b6001600160a01b0381166105655760405162461bcd60e51b815260206004820152600d60248201526c06e657754696d656c6f636b3d3609c1b604482015260640160405180910390fd5b600080546040516001600160a01b03808516939216917fae97011a27b5efe7b1d76fe38e75cc498fd64cc24e407a9c6b2185d27f611f7e91a3600080546001600160a01b0319166001600160a01b0392909216919091179055565b6105c8610a59565b600084846040516105da929190610ea3565b60408051918290038220600081815260026020908152838220888352815283822054808352600190915290839020610140850190935282549194509291908290829061062590610eb3565b80601f016020809104026020016040519081016040528092919081815260200182805461065190610eb3565b801561069e5780601f106106735761010080835404028352916020019161069e565b820191906000526020600020905b81548152906001019060200180831161068157829003601f168201915b5050509183525050600182015460208201526002820154604082015260038201546001600160401b038082166060840152600160401b82048116608084015260ff600160801b83048116151560a0850152600160881b830416151560c0840152600160901b9091041660e082015260048201546001600160a01b031661010082015260059091015461012090910152925050509392505050565b600080546001600160a01b031633146107645760405163656a6d1560e11b815260040160405180910390fd5b60008888604051610776929190610ea3565b60405180910390209050856001600160401b0316600003610795574295505b6001600160401b038516158015906107be5750856001600160401b0316856001600160401b0316105b156107dc5760405163b11cd48160e01b815260040160405180910390fd5b6040805160208082018490528183018a9052825180830384018152606090920190925280519101206000818152600160205260409020909250806108218a8c83610f3e565b5060018101829055600280820189905560038201805468ffffffffffffffffff60881b19881515600160801b021669ffffffffffffffffffff60801b196001600160401b038b8116600160401b026fffffffffffffffffffffffffffffffff19909416908d161792909217919091161790556004820180546001600160a01b0319169055600582018590556000838152602091825260408082208b8352909252819020849055518890839085907fd51d79850bfa2179e4049cf5bacb06e9f0f971bb365a8a2a2f96446cdd6d447690610905908f908f908e908e908e908e906110f1565b60405180910390a45050979650505050505050565b610922610a59565b600082815260016020526040908190208151610140810190925280548290829061094b90610eb3565b80601f016020809104026020016040519081016040528092919081815260200182805461097790610eb3565b80156109c45780601f10610999576101008083540402835291602001916109c4565b820191906000526020600020905b8154815290600101906020018083116109a757829003601f168201915b5050509183525050600182015460208201526002820154604082015260038201546001600160401b038082166060840152600160401b82048116608084015260ff600160801b83048116151560a0850152600160881b830416151560c0840152600160901b9091041660e082015260048201546001600160a01b03166101008201526005909101546101209091015292915050565b6040805161014081018252606080825260006020830181905292820183905281018290526080810182905260a0810182905260c0810182905260e08101829052610100810182905261012081019190915290565b60008060408385031215610ac057600080fd5b50508035926020909101359150565b60008083601f840112610ae157600080fd5b5081356001600160401b03811115610af857600080fd5b602083019150836020828501011115610b1057600080fd5b9250929050565b600080600060408486031215610b2c57600080fd5b83356001600160401b03811115610b4257600080fd5b610b4e86828701610acf565b909790965060209590950135949350505050565b600080600080600060608688031215610b7a57600080fd5b85356001600160401b0380821115610b9157600080fd5b610b9d89838a01610acf565b9097509550602088013594506040880135915080821115610bbd57600080fd5b50610bca88828901610acf565b969995985093965092949392505050565b600060208284031215610bed57600080fd5b81356001600160a01b038116811461038757600080fd5b634e487b7160e01b600052604160045260246000fd5b60008060408385031215610c2d57600080fd5b82356001600160401b0380821115610c4457600080fd5b818501915085601f830112610c5857600080fd5b813581811115610c6a57610c6a610c04565b604051601f8201601f19908116603f01168101908382118183101715610c9257610c92610c04565b81604052828152886020848701011115610cab57600080fd5b826020860160208301376000602093820184015298969091013596505050505050565b6000815180845260005b81811015610cf457602081850181015186830182015201610cd8565b506000602082860101526020601f19601f83011685010191505092915050565b6020815260008251610140806020850152610d33610160850183610cce565b915060208501516040850152604085015160608501526060850151610d6360808601826001600160401b03169052565b5060808501516001600160401b03811660a08601525060a085015180151560c08601525060c085015180151560e08601525060e0850151610100610db1818701836001600160401b03169052565b8601519050610120610dcd868201836001600160a01b03169052565b959095015193019290925250919050565b80356001600160401b0381168114610df557600080fd5b919050565b600080600080600080600060c0888a031215610e1557600080fd5b87356001600160401b03811115610e2b57600080fd5b610e378a828b01610acf565b90985096505060208801359450610e5060408901610dde565b9350610e5e60608901610dde565b925060808801358015158114610e7357600080fd5b8092505060a0880135905092959891949750929550565b600060208284031215610e9c57600080fd5b5035919050565b8183823760009101908152919050565b600181811c90821680610ec757607f821691505b602082108103610ee757634e487b7160e01b600052602260045260246000fd5b50919050565b601f821115610f39576000816000526020600020601f850160051c81016020861015610f165750805b601f850160051c820191505b81811015610f3557828155600101610f22565b5050505b505050565b6001600160401b03831115610f5557610f55610c04565b610f6983610f638354610eb3565b83610eed565b6000601f841160018114610f9d5760008515610f855750838201355b600019600387901b1c1916600186901b178355610ff7565b600083815260209020601f19861690835b82811015610fce5786850135825560209485019460019092019101610fae565b5086821015610feb5760001960f88860031b161c19848701351681555b505060018560011b0183555b5050505050565b81835281816020850137506000828201602090810191909152601f909101601f19169091010190565b60808152600080875461103981610eb3565b80608086015260a060018084166000811461105b5760018114611077576110a9565b60ff19851660a089015260a084151560051b89010195506110a9565b8c60005260208060002060005b8681101561109f5781548b8201870152908401908201611084565b8a0160a001975050505b50505050506110c360208401886001600160401b03169052565b6001600160a01b038616604084015282810360608401526110e5818587610ffe565b98975050505050505050565b60a08152600061110560a08301888a610ffe565b6001600160401b0396871660208401529490951660408201529115156060830152608090910152939250505056fea264697066735822122035317288c64e09342771b4c73507501b969812822f161c89bfc2217d66429b3164736f6c63430008160033",
  "linkReferences": {},
  "deployedLinkReferences": {}
}