{
  "_format": "hh-sol-artifact-1",
  "contractName": "MyGovernor",
  "sourceName": "contracts/governor.sol",
  "abi": [
    {
      "inputs": [
        {
          "internalType": "contract IVotes",
          "name": "_token",
          "type": "address"
        },
        {
          "internalType": "contract TimelockController",
          "name": "_timelock",
          "type": "address"
        }
      ],
      "stateMutability": "nonpayable",
      "type": "constructor"
    },
    {
      "inputs": [],
      "name": "CheckpointUnorderedInsertion",
      "type": "error"
    },
    {
      "inputs": [],
      "name": "FailedCall",
      "type": "error"
    },
    {
      "inputs": [
        {
          "internalType": "address",
          "name": "voter",
          "type": "address"
        }
      ],
      "name": "GovernorAlreadyCastVote",
      "type": "error"
    },
    {
      "inputs": [
        {
          "internalType": "uint256",
          "name": "proposalId",
          "type": "uint256"
        }
      ],
      "name": "GovernorAlreadyQueuedProposal",
      "type": "error"
    },
    {
      "inputs": [],
      "name": "GovernorDisabledDeposit",
      "type": "error"
    },
    {
      "inputs": [
        {
          "internalType": "address",
          "name": "proposer",
          "type": "address"
        },
        {
          "internalType": "uint256",
          "name": "votes",
          "type": "uint256"
        },
        {
          "internalType": "uint256",
          "name": "threshold",
          "type": "uint256"
        }
      ],
      "name": "GovernorInsufficientProposerVotes",
      "type": "error"
    },
    {
      "inputs": [
        {
          "internalType": "uint256",
          "name": "targets",
          "type": "uint256"
        },
        {
          "internalType": "uint256",
          "name": "calldatas",
          "type": "uint256"
        },
        {
          "internalType": "uint256",
          "name": "values",
          "type": "uint256"
        }
      ],
      "name": "GovernorInvalidProposalLength",
      "type": "error"
    },
    {
      "inputs": [
        {
          "internalType": "uint256",
          "name": "quorumNumerator",
          "type": "uint256"
        },
        {
          "internalType": "uint256",
          "name": "quorumDenominator",
          "type": "uint256"
        }
      ],
      "name": "GovernorInvalidQuorumFraction",
      "type": "error"
    },
    {
      "inputs": [
        {
          "internalType": "address",
          "name": "voter",
          "type": "address"
        }
      ],
      "name": "GovernorInvalidSignature",
      "type": "error"
    },
    {
      "inputs": [],
      "name": "GovernorInvalidVoteParams",
      "type": "error"
    },
    {
      "inputs": [],
      "name": "GovernorInvalidVoteType",
      "type": "error"
    },
    {
      "inputs": [
        {
          "internalType": "uint256",
          "name": "votingPeriod",
          "type": "uint256"
        }
      ],
      "name": "GovernorInvalidVotingPeriod",
      "type": "error"
    },
    {
      "inputs": [
        {
          "internalType": "uint256",
          "name": "proposalId",
          "type": "uint256"
        }
      ],
      "name": "GovernorNonexistentProposal",
      "type": "error"
    },
    {
      "inputs": [
        {
          "internalType": "uint256",
          "name": "proposalId",
          "type": "uint256"
        }
      ],
      "name": "GovernorNotQueuedProposal",
      "type": "error"
    },
    {
      "inputs": [
        {
          "internalType": "address",
          "name": "account",
          "type": "address"
        }
      ],
      "name": "GovernorOnlyExecutor",
      "type": "error"
    },
    {
      "inputs": [],
      "name": "GovernorQueueNotImplemented",
      "type": "error"
    },
    {
      "inputs": [
        {
          "internalType": "address",
          "name": "proposer",
          "type": "address"
        }
      ],
      "name": "GovernorRestrictedProposer",
      "type": "error"
    },
    {
      "inputs": [
        {
          "internalType": "uint256",
          "name": "proposalId",
          "type": "uint256"
        },
        {
          "internalType": "address",
          "name": "account",
          "type": "address"
        }
      ],
      "name": "GovernorUnableToCancel",
      "type": "error"
    },
    {
      "inputs": [
        {
          "internalType": "uint256",
          "name": "proposalId",
          "type": "uint256"
        },
        {
          "internalType": "enum IGovernor.ProposalState",
          "name": "current",
          "type": "uint8"
        },
        {
          "internalType": "bytes32",
          "name": "expectedStates",
          "type": "bytes32"
        }
      ],
      "name": "GovernorUnexpectedProposalState",
      "type": "error"
    },
    {
      "inputs": [
        {
          "internalType": "address",
          "name": "account",
          "type": "address"
        },
        {
          "internalType": "uint256",
          "name": "currentNonce",
          "type": "uint256"
        }
      ],
      "name": "InvalidAccountNonce",
      "type": "error"
    },
    {
      "inputs": [],
      "name": "InvalidShortString",
      "type": "error"
    },
    {
      "inputs": [
        {
          "internalType": "uint8",
          "name": "bits",
          "type": "uint8"
        },
        {
          "internalType": "uint256",
          "name": "value",
          "type": "uint256"
        }
      ],
      "name": "SafeCastOverflowedUintDowncast",
      "type": "error"
    },
    {
      "inputs": [
        {
          "internalType": "string",
          "name": "str",
          "type": "string"
        }
      ],
      "name": "StringTooLong",
      "type": "error"
    },
    {
      "anonymous": false,
      "inputs": [],
      "name": "EIP712DomainChanged",
      "type": "event"
    },
    {
      "anonymous": false,
      "inputs": [
        {
          "indexed": false,
          "internalType": "uint256",
          "name": "proposalId",
          "type": "uint256"
        }
      ],
      "name": "ProposalCanceled",
      "type": "event"
    },
    {
      "anonymous": false,
      "inputs": [
        {
          "indexed": false,
          "internalType": "uint256",
          "name": "proposalId",
          "type": "uint256"
        },
        {
          "indexed": false,
          "internalType": "address",
          "name": "proposer",
          "type": "address"
        },
        {
          "indexed": false,
          "internalType": "address[]",
          "name": "targets",
          "type": "address[]"
        },
        {
          "indexed": false,
          "internalType": "uint256[]",
          "name": "values",
          "type": "uint256[]"
        },
        {
          "indexed": false,
          "internalType": "string[]",
          "name": "signatures",
          "type": "string[]"
        },
        {
          "indexed": false,
          "internalType": "bytes[]",
          "name": "calldatas",
          "type": "bytes[]"
        },
        {
          "indexed": false,
          "internalType": "uint256",
          "name": "voteStart",
          "type": "uint256"
        },
        {
          "indexed": false,
          "internalType": "uint256",
          "name": "voteEnd",
          "type": "uint256"
        },
        {
          "indexed": false,
          "internalType": "string",
          "name": "description",
          "type": "string"
        }
      ],
      "name": "ProposalCreated",
      "type": "event"
    },
    {
      "anonymous": false,
      "inputs": [
        {
          "indexed": false,
          "internalType": "uint256",
          "name": "proposalId",
          "type": "uint256"
        }
      ],
      "name": "ProposalExecuted",
      "type": "event"
    },
    {
      "anonymous": false,
      "inputs": [
        {
          "indexed": false,
          "internalType": "uint256",
          "name": "proposalId",
          "type": "uint256"
        },
        {
          "indexed": false,
          "internalType": "uint256",
          "name": "etaSeconds",
          "type": "uint256"
        }
      ],
      "name": "ProposalQueued",
      "type": "event"
    },
    {
      "anonymous": false,
      "inputs": [
        {
          "indexed": false,
          "internalType": "uint256",
          "name": "oldProposalThreshold",
          "type": "uint256"
        },
        {
          "indexed": false,
          "internalType": "uint256",
          "name": "newProposalThreshold",
          "type": "uint256"
        }
      ],
      "name": "ProposalThresholdSet",
      "type": "event"
    },
    {
      "anonymous": false,
      "inputs": [
        {
          "indexed": false,
          "internalType": "uint256",
          "name": "oldQuorumNumerator",
          "type": "uint256"
        },
        {
          "indexed": false,
          "internalType": "uint256",
          "name": "newQuorumNumerator",
          "type": "uint256"
        }
      ],
      "name": "QuorumNumeratorUpdated",
      "type": "event"
    },
    {
      "anonymous": false,
      "inputs": [
        {
          "indexed": false,
          "internalType": "address",
          "name": "oldTimelock",
          "type": "address"
        },
        {
          "indexed": false,
          "internalType": "address",
          "name": "newTimelock",
          "type": "address"
        }
      ],
      "name": "TimelockChange",
      "type": "event"
    },
    {
      "anonymous": false,
      "inputs": [
        {
          "indexed": true,
          "internalType": "address",
          "name": "voter",
          "type": "address"
        },
        {
          "indexed": false,
          "internalType": "uint256",
          "name": "proposalId",
          "type": "uint256"
        },
        {
          "indexed": false,
          "internalType": "uint8",
          "name": "support",
          "type": "uint8"
        },
        {
          "indexed": false,
          "internalType": "uint256",
          "name": "weight",
          "type": "uint256"
        },
        {
          "indexed": false,
          "internalType": "string",
          "name": "reason",
          "type": "string"
        }
      ],
      "name": "VoteCast",
      "type": "event"
    },
    {
      "anonymous": false,
      "inputs": [
        {
          "indexed": true,
          "internalType": "address",
          "name": "voter",
          "type": "address"
        },
        {
          "indexed": false,
          "internalType": "uint256",
          "name": "proposalId",
          "type": "uint256"
        },
        {
          "indexed": false,
          "internalType": "uint8",
          "name": "support",
          "type": "uint8"
        },
        {
          "indexed": false,
          "internalType": "uint256",
          "name": "weight",
          "type": "uint256"
        },
        {
          "indexed": false,
          "internalType": "string",
          "name": "reason",
          "type": "string"
        },
        {
          "indexed": false,
          "internalType": "bytes",
          "name": "params",
          "type": "bytes"
        }
      ],
      "name": "VoteCastWithParams",
      "type": "event"
    },
    {
      "anonymous": false,
      "inputs": [
        {
          "indexed": false,
          "internalType": "uint256",
          "name": "oldVotingDelay",
          "type": "uint256"
        },
        {
          "indexed": false,
          "internalType": "uint256",
          "name": "newVotingDelay",
          "type": "uint256"
        }
      ],
      "name": "VotingDelaySet",
      "type": "event"
    },
    {
      "anonymous": false,
      "inputs": [
        {
          "indexed": false,
          "internalType": "uint256",
          "name": "oldVotingPeriod",
          "type": "uint256"
        },
        {
          "indexed": false,
          "internalType": "uint256",
          "name": "newVotingPeriod",
          "type": "uint256"
        }
      ],
      "name": "VotingPeriodSet",
      "type": "event"
    },
    {
      "inputs": [],
      "name": "BALLOT_TYPEHASH",
      "outputs": [
        {
          "internalType": "bytes32",
          "name": "",
          "type": "bytes32"
        }
      ],
      "stateMutability": "view",
      "type": "function"
    },
    {
      "inputs": [],
      "name": "CLOCK_MODE",
      "outputs": [
        {
          "internalType": "string",
          "name": "",
          "type": "string"
        }
      ],
      "stateMutability": "view",
      "type": "function"
    },
    {
      "inputs": [],
      "name": "COUNTING_MODE",
      "outputs": [
        {
          "internalType": "string",
          "name": "",
          "type": "string"
        }
      ],
      "stateMutability": "pure",
      "type": "function"
    },
    {
      "inputs": [],
      "name": "EXTENDED_BALLOT_TYPEHASH",
      "outputs": [
        {
          "internalType": "bytes32",
          "name": "",
          "type": "bytes32"
        }
      ],
      "stateMutability": "view",
      "type": "function"
    },
    {
      "inputs": [
        {
          "internalType": "address[]",
          "name": "targets",
          "type": "address[]"
        },
        {
          "internalType": "uint256[]",
          "name": "values",
          "type": "uint256[]"
        },
        {
          "internalType": "bytes[]",
          "name": "calldatas",
          "type": "bytes[]"
        },
        {
          "internalType": "bytes32",
          "name": "descriptionHash",
          "type": "bytes32"
        }
      ],
      "name": "cancel",
      "outputs": [
        {
          "internalType": "uint256",
          "name": "",
          "type": "uint256"
        }
      ],
      "stateMutability": "nonpayable",
      "type": "function"
    },
    {
      "inputs": [
        {
          "internalType": "uint256",
          "name": "proposalId",
          "type": "uint256"
        },
        {
          "internalType": "uint8",
          "name": "support",
          "type": "uint8"
        }
      ],
      "name": "castVote",
      "outputs": [
        {
          "internalType": "uint256",
          "name": "",
          "type": "uint256"
        }
      ],
      "stateMutability": "nonpayable",
      "type": "function"
    },
    {
      "inputs": [
        {
          "internalType": "uint256",
          "name": "proposalId",
          "type": "uint256"
        },
        {
          "internalType": "uint8",
          "name": "support",
          "type": "uint8"
        },
        {
          "internalType": "address",
          "name": "voter",
          "type": "address"
        },
        {
          "internalType": "bytes",
          "name": "signature",
          "type": "bytes"
        }
      ],
      "name": "castVoteBySig",
      "outputs": [
        {
          "internalType": "uint256",
          "name": "",
          "type": "uint256"
        }
      ],
      "stateMutability": "nonpayable",
      "type": "function"
    },
    {
      "inputs": [
        {
          "internalType": "uint256",
          "name": "proposalId",
          "type": "uint256"
        },
        {
          "internalType": "uint8",
          "name": "support",
          "type": "uint8"
        },
        {
          "internalType": "string",
          "name": "reason",
          "type": "string"
        }
      ],
      "name": "castVoteWithReason",
      "outputs": [
        {
          "internalType": "uint256",
          "name": "",
          "type": "uint256"
        }
      ],
      "stateMutability": "nonpayable",
      "type": "function"
    },
    {
      "inputs": [
        {
          "internalType": "uint256",
          "name": "proposalId",
          "type": "uint256"
        },
        {
          "internalType": "uint8",
          "name": "support",
          "type": "uint8"
        },
        {
          "internalType": "string",
          "name": "reason",
          "type": "string"
        },
        {
          "internalType": "bytes",
          "name": "params",
          "type": "bytes"
        }
      ],
      "name": "castVoteWithReasonAndParams",
      "outputs": [
        {
          "internalType": "uint256",
          "name": "",
          "type": "uint256"
        }
      ],
      "stateMutability": "nonpayable",
      "type": "function"
    },
    {
      "inputs": [
        {
          "internalType": "uint256",
          "name": "proposalId",
          "type": "uint256"
        },
        {
          "internalType": "uint8",
          "name": "support",
          "type": "uint8"
        },
        {
          "internalType": "address",
          "name": "voter",
          "type": "address"
        },
        {
          "internalType": "string",
          "name": "reason",
          "type": "string"
        },
        {
          "internalType": "bytes",
          "name": "params",
          "type": "bytes"
        },
        {
          "internalType": "bytes",
          "name": "signature",
          "type": "bytes"
        }
      ],
      "name": "castVoteWithReasonAndParamsBySig",
      "outputs": [
        {
          "internalType": "uint256",
          "name": "",
          "type": "uint256"
        }
      ],
      "stateMutability": "nonpayable",
      "type": "function"
    },
    {
      "inputs": [],
      "name": "clock",
      "outputs": [
        {
          "internalType": "uint48",
          "name": "",
          "type": "uint48"
        }
      ],
      "stateMutability": "view",
      "type": "function"
    },
    {
      "inputs": [],
      "name": "eip712Domain",
      "outputs": [
        {
          "internalType": "bytes1",
          "name": "fields",
          "type": "bytes1"
        },
        {
          "internalType": "string",
          "name": "name",
          "type": "string"
        },
        {
          "internalType": "string",
          "name": "version",
          "type": "string"
        },
        {
          "internalType": "uint256",
          "name": "chainId",
          "type": "uint256"
        },
        {
          "internalType": "address",
          "name": "verifyingContract",
          "type": "address"
        },
        {
          "internalType": "bytes32",
          "name": "salt",
          "type": "bytes32"
        },
        {
          "internalType": "uint256[]",
          "name": "extensions",
          "type": "uint256[]"
        }
      ],
      "stateMutability": "view",
      "type": "function"
    },
    {
      "inputs": [
        {
          "internalType": "address[]",
          "name": "targets",
          "type": "address[]"
        },
        {
          "internalType": "uint256[]",
          "name": "values",
          "type": "uint256[]"
        },
        {
          "internalType": "bytes[]",
          "name": "calldatas",
          "type": "bytes[]"
        },
        {
          "internalType": "bytes32",
          "name": "descriptionHash",
          "type": "bytes32"
        }
      ],
      "name": "execute",
      "outputs": [
        {
          "internalType": "uint256",
          "name": "",
          "type": "uint256"
        }
      ],
      "stateMutability": "payable",
      "type": "function"
    },
    {
      "inputs": [
        {
          "internalType": "address[]",
          "name": "targets",
          "type": "address[]"
        },
        {
          "internalType": "uint256[]",
          "name": "values",
          "type": "uint256[]"
        },
        {
          "internalType": "bytes[]",
          "name": "calldatas",
          "type": "bytes[]"
        },
        {
          "internalType": "bytes32",
          "name": "descriptionHash",
          "type": "bytes32"
        }
      ],
      "name": "getProposalId",
      "outputs": [
        {
          "internalType": "uint256",
          "name": "",
          "type": "uint256"
        }
      ],
      "stateMutability": "view",
      "type": "function"
    },
    {
      "inputs": [],
      "name": "getProposalThreshold",
      "outputs": [
        {
          "internalType": "uint256",
          "name": "",
          "type": "uint256"
        }
      ],
      "stateMutability": "view",
      "type": "function"
    },
    {
      "inputs": [
        {
          "internalType": "address",
          "name": "account",
          "type": "address"
        },
        {
          "internalType": "uint256",
          "name": "timepoint",
          "type": "uint256"
        }
      ],
      "name": "getVotes",
      "outputs": [
        {
          "internalType": "uint256",
          "name": "",
          "type": "uint256"
        }
      ],
      "stateMutability": "view",
      "type": "function"
    },
    {
      "inputs": [
        {
          "internalType": "address",
          "name": "account",
          "type": "address"
        },
        {
          "internalType": "uint256",
          "name": "timepoint",
          "type": "uint256"
        },
        {
          "internalType": "bytes",
          "name": "params",
          "type": "bytes"
        }
      ],
      "name": "getVotesWithParams",
      "outputs": [
        {
          "internalType": "uint256",
          "name": "",
          "type": "uint256"
        }
      ],
      "stateMutability": "view",
      "type": "function"
    },
    {
      "inputs": [],
      "name": "getVotingDelay",
      "outputs": [
        {
          "internalType": "uint256",
          "name": "",
          "type": "uint256"
        }
      ],
      "stateMutability": "view",
      "type": "function"
    },
    {
      "inputs": [],
      "name": "getVotingPeriod",
      "outputs": [
        {
          "internalType": "uint256",
          "name": "",
          "type": "uint256"
        }
      ],
      "stateMutability": "view",
      "type": "function"
    },
    {
      "inputs": [
        {
          "internalType": "uint256",
          "name": "proposalId",
          "type": "uint256"
        },
        {
          "internalType": "address",
          "name": "account",
          "type": "address"
        }
      ],
      "name": "hasVoted",
      "outputs": [
        {
          "internalType": "bool",
          "name": "",
          "type": "bool"
        }
      ],
      "stateMutability": "view",
      "type": "function"
    },
    {
      "inputs": [
        {
          "internalType": "address[]",
          "name": "targets",
          "type": "address[]"
        },
        {
          "internalType": "uint256[]",
          "name": "values",
          "type": "uint256[]"
        },
        {
          "internalType": "bytes[]",
          "name": "calldatas",
          "type": "bytes[]"
        },
        {
          "internalType": "bytes32",
          "name": "descriptionHash",
          "type": "bytes32"
        }
      ],
      "name": "hashProposal",
      "outputs": [
        {
          "internalType": "uint256",
          "name": "",
          "type": "uint256"
        }
      ],
      "stateMutability": "pure",
      "type": "function"
    },
    {
      "inputs": [],
      "name": "name",
      "outputs": [
        {
          "internalType": "string",
          "name": "",
          "type": "string"
        }
      ],
      "stateMutability": "view",
      "type": "function"
    },
    {
      "inputs": [
        {
          "internalType": "address",
          "name": "owner",
          "type": "address"
        }
      ],
      "name": "nonces",
      "outputs": [
        {
          "internalType": "uint256",
          "name": "",
          "type": "uint256"
        }
      ],
      "stateMutability": "view",
      "type": "function"
    },
    {
      "inputs": [
        {
          "internalType": "address",
          "name": "",
          "type": "address"
        },
        {
          "internalType": "address",
          "name": "",
          "type": "address"
        },
        {
          "internalType": "uint256[]",
          "name": "",
          "type": "uint256[]"
        },
        {
          "internalType": "uint256[]",
          "name": "",
          "type": "uint256[]"
        },
        {
          "internalType": "bytes",
          "name": "",
          "type": "bytes"
        }
      ],
      "name": "onERC1155BatchReceived",
      "outputs": [
        {
          "internalType": "bytes4",
          "name": "",
          "type": "bytes4"
        }
      ],
      "stateMutability": "nonpayable",
      "type": "function"
    },
    {
      "inputs": [
        {
          "internalType": "address",
          "name": "",
          "type": "address"
        },
        {
          "internalType": "address",
          "name": "",
          "type": "address"
        },
        {
          "internalType": "uint256",
          "name": "",
          "type": "uint256"
        },
        {
          "internalType": "uint256",
          "name": "",
          "type": "uint256"
        },
        {
          "internalType": "bytes",
          "name": "",
          "type": "bytes"
        }
      ],
      "name": "onERC1155Received",
      "outputs": [
        {
          "internalType": "bytes4",
          "name": "",
          "type": "bytes4"
        }
      ],
      "stateMutability": "nonpayable",
      "type": "function"
    },
    {
      "inputs": [
        {
          "internalType": "address",
          "name": "",
          "type": "address"
        },
        {
          "internalType": "address",
          "name": "",
          "type": "address"
        },
        {
          "internalType": "uint256",
          "name": "",
          "type": "uint256"
        },
        {
          "internalType": "bytes",
          "name": "",
          "type": "bytes"
        }
      ],
      "name": "onERC721Received",
      "outputs": [
        {
          "internalType": "bytes4",
          "name": "",
          "type": "bytes4"
        }
      ],
      "stateMutability": "nonpayable",
      "type": "function"
    },
    {
      "inputs": [],
      "name": "owner",
      "outputs": [
        {
          "internalType": "address",
          "name": "",
          "type": "address"
        }
      ],
      "stateMutability": "view",
      "type": "function"
    },
    {
      "inputs": [
        {
          "internalType": "uint256",
          "name": "proposalId",
          "type": "uint256"
        }
      ],
      "name": "proposalDeadline",
      "outputs": [
        {
          "internalType": "uint256",
          "name": "",
          "type": "uint256"
        }
      ],
      "stateMutability": "view",
      "type": "function"
    },
    {
      "inputs": [
        {
          "internalType": "uint256",
          "name": "proposalId",
          "type": "uint256"
        }
      ],
      "name": "proposalEta",
      "outputs": [
        {
          "internalType": "uint256",
          "name": "",
          "type": "uint256"
        }
      ],
      "stateMutability": "view",
      "type": "function"
    },
    {
      "inputs": [
        {
          "internalType": "uint256",
          "name": "proposalId",
          "type": "uint256"
        }
      ],
      "name": "proposalNeedsQueuing",
      "outputs": [
        {
          "internalType": "bool",
          "name": "",
          "type": "bool"
        }
      ],
      "stateMutability": "view",
      "type": "function"
    },
    {
      "inputs": [
        {
          "internalType": "uint256",
          "name": "proposalId",
          "type": "uint256"
        }
      ],
      "name": "proposalProposer",
      "outputs": [
        {
          "internalType": "address",
          "name": "",
          "type": "address"
        }
      ],
      "stateMutability": "view",
      "type": "function"
    },
    {
      "inputs": [
        {
          "internalType": "uint256",
          "name": "proposalId",
          "type": "uint256"
        }
      ],
      "name": "proposalSnapshot",
      "outputs": [
        {
          "internalType": "uint256",
          "name": "",
          "type": "uint256"
        }
      ],
      "stateMutability": "view",
      "type": "function"
    },
    {
      "inputs": [],
      "name": "proposalThreshold",
      "outputs": [
        {
          "internalType": "uint256",
          "name": "",
          "type": "uint256"
        }
      ],
      "stateMutability": "view",
      "type": "function"
    },
    {
      "inputs": [
        {
          "internalType": "uint256",
          "name": "proposalId",
          "type": "uint256"
        }
      ],
      "name": "proposalVotes",
      "outputs": [
        {
          "internalType": "uint256",
          "name": "againstVotes",
          "type": "uint256"
        },
        {
          "internalType": "uint256",
          "name": "forVotes",
          "type": "uint256"
        },
        {
          "internalType": "uint256",
          "name": "abstainVotes",
          "type": "uint256"
        }
      ],
      "stateMutability": "view",
      "type": "function"
    },
    {
      "inputs": [
        {
          "internalType": "address[]",
          "name": "targets",
          "type": "address[]"
        },
        {
          "internalType": "uint256[]",
          "name": "values",
          "type": "uint256[]"
        },
        {
          "internalType": "bytes[]",
          "name": "calldatas",
          "type": "bytes[]"
        },
        {
          "internalType": "string",
          "name": "description",
          "type": "string"
        }
      ],
      "name": "propose",
      "outputs": [
        {
          "internalType": "uint256",
          "name": "",
          "type": "uint256"
        }
      ],
      "stateMutability": "nonpayable",
      "type": "function"
    },
    {
      "inputs": [
        {
          "internalType": "address[]",
          "name": "targets",
          "type": "address[]"
        },
        {
          "internalType": "uint256[]",
          "name": "values",
          "type": "uint256[]"
        },
        {
          "internalType": "bytes[]",
          "name": "calldatas",
          "type": "bytes[]"
        },
        {
          "internalType": "bytes32",
          "name": "descriptionHash",
          "type": "bytes32"
        }
      ],
      "name": "queue",
      "outputs": [
        {
          "internalType": "uint256",
          "name": "",
          "type": "uint256"
        }
      ],
      "stateMutability": "nonpayable",
      "type": "function"
    },
    {
      "inputs": [
        {
          "internalType": "uint256",
          "name": "blockNumber",
          "type": "uint256"
        }
      ],
      "name": "quorum",
      "outputs": [
        {
          "internalType": "uint256",
          "name": "",
          "type": "uint256"
        }
      ],
      "stateMutability": "view",
      "type": "function"
    },
    {
      "inputs": [],
      "name": "quorumDenominator",
      "outputs": [
        {
          "internalType": "uint256",
          "name": "",
          "type": "uint256"
        }
      ],
      "stateMutability": "view",
      "type": "function"
    },
    {
      "inputs": [
        {
          "internalType": "uint256",
          "name": "timepoint",
          "type": "uint256"
        }
      ],
      "name": "quorumNumerator",
      "outputs": [
        {
          "internalType": "uint256",
          "name": "",
          "type": "uint256"
        }
      ],
      "stateMutability": "view",
      "type": "function"
    },
    {
      "inputs": [],
      "name": "quorumNumerator",
      "outputs": [
        {
          "internalType": "uint256",
          "name": "",
          "type": "uint256"
        }
      ],
      "stateMutability": "view",
      "type": "function"
    },
    {
      "inputs": [
        {
          "internalType": "address",
          "name": "target",
          "type": "address"
        },
        {
          "internalType": "uint256",
          "name": "value",
          "type": "uint256"
        },
        {
          "internalType": "bytes",
          "name": "data",
          "type": "bytes"
        }
      ],
      "name": "relay",
      "outputs": [],
      "stateMutability": "payable",
      "type": "function"
    },
    {
      "inputs": [
        {
          "internalType": "uint256",
          "name": "newThreshold",
          "type": "uint256"
        }
      ],
      "name": "setProposalThreshold",
      "outputs": [],
      "stateMutability": "nonpayable",
      "type": "function"
    },
    {
      "inputs": [
        {
          "internalType": "uint256",
          "name": "newDelay",
          "type": "uint256"
        }
      ],
      "name": "setVotingDelay",
      "outputs": [],
      "stateMutability": "nonpayable",
      "type": "function"
    },
    {
      "inputs": [
        {
          "internalType": "uint48",
          "name": "newVotingDelay",
          "type": "uint48"
        }
      ],
      "name": "setVotingDelay",
      "outputs": [],
      "stateMutability": "nonpayable",
      "type": "function"
    },
    {
      "inputs": [
        {
          "internalType": "uint32",
          "name": "newVotingPeriod",
          "type": "uint32"
        }
      ],
      "name": "setVotingPeriod",
      "outputs": [],
      "stateMutability": "nonpayable",
      "type": "function"
    },
    {
      "inputs": [
        {
          "internalType": "uint256",
          "name": "newPeriod",
          "type": "uint256"
        }
      ],
      "name": "setVotingPeriod",
      "outputs": [],
      "stateMutability": "nonpayable",
      "type": "function"
    },
    {
      "inputs": [
        {
          "internalType": "uint256",
          "name": "proposalId",
          "type": "uint256"
        }
      ],
      "name": "state",
      "outputs": [
        {
          "internalType": "enum IGovernor.ProposalState",
          "name": "",
          "type": "uint8"
        }
      ],
      "stateMutability": "view",
      "type": "function"
    },
    {
      "inputs": [
        {
          "internalType": "bytes4",
          "name": "interfaceId",
          "type": "bytes4"
        }
      ],
      "name": "supportsInterface",
      "outputs": [
        {
          "internalType": "bool",
          "name": "",
          "type": "bool"
        }
      ],
      "stateMutability": "view",
      "type": "function"
    },
    {
      "inputs": [],
      "name": "timelock",
      "outputs": [
        {
          "internalType": "address",
          "name": "",
          "type": "address"
        }
      ],
      "stateMutability": "view",
      "type": "function"
    },
    {
      "inputs": [],
      "name": "token",
      "outputs": [
        {
          "internalType": "contract IERC5805",
          "name": "",
          "type": "address"
        }
      ],
      "stateMutability": "view",
      "type": "function"
    },
    {
      "inputs": [
        {
          "internalType": "uint256",
          "name": "newQuorumNumerator",
          "type": "uint256"
        }
      ],
      "name": "updateQuorumNumerator",
      "outputs": [],
      "stateMutability": "nonpayable",
      "type": "function"
    },
    {
      "inputs": [
        {
          "internalType": "contract TimelockController",
          "name": "newTimelock",
          "type": "address"
        }
      ],
      "name": "updateTimelock",
      "outputs": [],
      "stateMutability": "nonpayable",
      "type": "function"
    },
    {
      "inputs": [],
      "name": "version",
      "outputs": [
        {
          "internalType": "string",
          "name": "",
          "type": "string"
        }
      ],
      "stateMutability": "view",
      "type": "function"
    },
    {
      "inputs": [],
      "name": "votingDelay",
      "outputs": [
        {
          "internalType": "uint256",
          "name": "",
          "type": "uint256"
        }
      ],
      "stateMutability": "view",
      "type": "function"
    },
    {
      "inputs": [],
      "name": "votingPeriod",
      "outputs": [
        {
          "internalType": "uint256",
          "name": "",
          "type": "uint256"
        }
      ],
      "stateMutability": "view",
      "type": "function"
    },
    {
      "stateMutability": "payable",
      "type": "receive"
    }
  ],
  "bytecode": "0x6101806040523480156200001257600080fd5b50604051620051d9380380620051d983398101604081905262000035916200079c565b8060048360016119af683635c9adc5dea000006040518060400160405280600a81526020016926bca3b7bb32b93737b960b11b815250806200007c620001a560201b60201c565b62000089826000620001c0565b610120526200009a816001620001c0565b61014052815160208084019190912060e052815190820120610100524660a0526200012860e05161010051604080517f8b73c3c69bb8fe3d512ecc4cf759cc79239f7b179b0ffacaa9a75d522b39400f60208201529081019290925260608201524660808201523060a082015260009060c00160405160208183030381529060405280519060200120905090565b60805250503060c05260036200013f828262000882565b506200014d905083620001f9565b62000158826200025f565b620001638162000306565b5050506001600160a01b0316610160526200017e8162000347565b506200018a81620003e7565b5050600d80546001600160a01b031916331790555062000a10565b6040805180820190915260018152603160f81b602082015290565b6000602083511015620001e057620001d88362000450565b9050620001f3565b81620001ed848262000882565b5060ff90505b92915050565b6008546040805165ffffffffffff928316815291831660208301527fc565b045403dc03c2eea82b81a0465edad9e2e7fc4d97e11421c209da93d7a93910160405180910390a16008805465ffffffffffff191665ffffffffffff92909216919091179055565b8063ffffffff166000036200028f5760405163f1cfbf0560e01b8152600060048201526024015b60405180910390fd5b6008546040805163ffffffff66010000000000009093048316815291831660208301527f7e3f7f0708a84de9203036abaa450dccc85ad5ff52f78c170f3edb55cf5e8828910160405180910390a16008805463ffffffff90921666010000000000000263ffffffff60301b19909216919091179055565b60075460408051918252602082018390527fccb45da8d5717e6c4544694297c4ba5cf151d455c9bb0ed4fc7a38411bc05461910160405180910390a1600755565b606480821115620003765760405163243e544560e01b8152600481018390526024810182905260440162000286565b60006200038262000493565b9050620003a762000392620004af565b6200039d8562000531565b600a91906200056b565b505060408051828152602081018590527f0553476bf02ef2726e8ce5ced78d63e26e602e4a2257b1f559418e24b4633997910160405180910390a1505050565b600b54604080516001600160a01b03928316815291831660208301527f08f74ea46ef7894f65eabfb5e6e695de773a000b47c529ab559178069b226401910160405180910390a1600b80546001600160a01b0319166001600160a01b0392909216919091179055565b600080829050601f815111156200047e578260405163305a27a960e01b81526004016200028691906200094e565b80516200048b826200099f565b179392505050565b6000620004a1600a62000588565b6001600160d01b0316905090565b6000620004bc6101605190565b6001600160a01b03166391ddadf46040518163ffffffff1660e01b8152600401602060405180830381865afa92505050801562000518575060408051601f3d908101601f191682019092526200051591810190620009c4565b60015b6200052c5762000527620005d8565b905090565b919050565b60006001600160d01b0382111562000567576040516306dfcc6560e41b815260d060048201526024810183905260440162000286565b5090565b6000806200057b858585620005e5565b915091505b935093915050565b80546000908015620005ce57620005b483620005a6600184620009ee565b600091825260209091200190565b54660100000000000090046001600160d01b0316620005d1565b60005b9392505050565b600062000527436200074e565b825460009081908015620006ef5760006200060787620005a6600185620009ee565b805490915065ffffffffffff80821691660100000000000090046001600160d01b03169088168211156200064e57604051632520601d60e01b815260040160405180910390fd5b8765ffffffffffff168265ffffffffffff16036200068c57825465ffffffffffff1666010000000000006001600160d01b03891602178355620006e0565b6040805180820190915265ffffffffffff808a1682526001600160d01b03808a1660208085019182528d54600181018f5560008f815291909120945191519092166601000000000000029216919091179101555b94508593506200058092505050565b50506040805180820190915265ffffffffffff80851682526001600160d01b0380851660208085019182528854600181018a5560008a815291822095519251909316660100000000000002919093161792019190915590508162000580565b600065ffffffffffff82111562000567576040516306dfcc6560e41b8152603060048201526024810183905260440162000286565b6001600160a01b03811681146200079957600080fd5b50565b60008060408385031215620007b057600080fd5b8251620007bd8162000783565b6020840151909250620007d08162000783565b809150509250929050565b634e487b7160e01b600052604160045260246000fd5b600181811c908216806200080657607f821691505b6020821081036200082757634e487b7160e01b600052602260045260246000fd5b50919050565b601f8211156200087d576000816000526020600020601f850160051c81016020861015620008585750805b601f850160051c820191505b81811015620008795782815560010162000864565b5050505b505050565b81516001600160401b038111156200089e576200089e620007db565b620008b681620008af8454620007f1565b846200082d565b602080601f831160018114620008ee5760008415620008d55750858301515b600019600386901b1c1916600185901b17855562000879565b600085815260208120601f198616915b828110156200091f57888601518255948401946001909101908401620008fe565b50858210156200093e5787850151600019600388901b60f8161c191681555b5050505050600190811b01905550565b60006020808352835180602085015260005b818110156200097e5785810183015185820160400152820162000960565b506000604082860101526040601f19601f8301168501019250505092915050565b80516020808301519190811015620008275760001960209190910360031b1b16919050565b600060208284031215620009d757600080fd5b815165ffffffffffff81168114620005d157600080fd5b81810381811115620001f357634e487b7160e01b600052601160045260246000fd5b60805160a05160c05160e0516101005161012051610140516101605161474762000a9260003960008181610b4d01528181610fc5015281816114f4015281816121030152612365015260006120ce015260006120a1015260006129a801526000612980015260006128db015260006129050152600061292f01526147476000f3fe6080604052600436106103545760003560e01c806384b0196e116101c6578063bc197c81116100f7578063e540d01d11610095578063ece40cc11161006f578063ece40cc114610ade578063f23a6e6114610afe578063f8ce560a14610b1e578063fc0c546a14610b3e57600080fd5b8063e540d01d14610a7e578063ea0217cf14610a9e578063eb9019d414610abe57600080fd5b8063c59057e4116100d1578063c59057e4146109c6578063d33219b4146109e6578063dd4e2ba514610a04578063deaaa7cc14610a4a57600080fd5b8063bc197c8114610973578063c01f9e3714610993578063c28bc2fa146109b357600080fd5b8063a2b170b011610164578063a8f8a6681161013e578063a8f8a668146108e6578063a9a9529414610906578063ab58fb8e14610926578063b58131b01461095e57600080fd5b8063a2b170b01461089c578063a7713a70146108b1578063a890c910146108c657600080fd5b80638ff262e3116101a05780638ff262e31461081c57806391ddadf41461083c57806397c3d334146108685780639a802a6d1461087c57600080fd5b806384b0196e146107bf57806385a21b19146107e75780638da5cb5b146107fc57600080fd5b806343859632116102a05780635f398a141161023e578063790518871161021857806379051887146107295780637b3c71d3146107495780637d5e81e2146107695780637ecebe001461078957600080fd5b80635f398a14146106c957806360c4247f146106e957806370b0f6601461070957600080fd5b8063544ffc9c1161027a578063544ffc9c1461062457806354fd4d501461065f57806356781388146106895780635b8d0e0d146106a957600080fd5b806343859632146105a5578063452115d6146105ef5780634bf5d7e91461060f57600080fd5b8063160cbed71161030d5780632fe3e261116102e75780632fe3e2611461050d5780633932abb1146105415780633e4f49e6146105565780633ecc6a431461058357600080fd5b8063160cbed7146104ba5780632656227d146104da5780632d63f693146104ed57600080fd5b806301ffc9a71461039057806302a251a3146103c557806306f3f9e6146103f157806306fdde0314610411578063143489d014610433578063150b7a021461048157600080fd5b3661038b5730610362610b71565b6001600160a01b03161461038957604051637485328f60e11b815260040160405180910390fd5b005b600080fd5b34801561039c57600080fd5b506103b06103ab366004613668565b610b8a565b60405190151581526020015b60405180910390f35b3480156103d157600080fd5b50600854600160301b900463ffffffff165b6040519081526020016103bc565b3480156103fd57600080fd5b5061038961040c366004613692565b610bf7565b34801561041d57600080fd5b50610426610c0b565b6040516103bc91906136fb565b34801561043f57600080fd5b5061046961044e366004613692565b6000908152600460205260409020546001600160a01b031690565b6040516001600160a01b0390911681526020016103bc565b34801561048d57600080fd5b506104a161049c3660046137ee565b610c9d565b6040516001600160e01b031990911681526020016103bc565b3480156104c657600080fd5b506103e36104d53660046139cd565b610ce0565b6103e36104e83660046139cd565b610daf565b3480156104f957600080fd5b506103e3610508366004613692565b610f1b565b34801561051957600080fd5b506103e37f3e83946653575f9a39005e1545185629e92736b7528ab20ca3816f315424a81181565b34801561054d57600080fd5b506103e3610f3c565b34801561056257600080fd5b50610576610571366004613692565b610f4f565b6040516103bc9190613a94565b34801561058f57600080fd5b50600854600160301b900463ffffffff166103e3565b3480156105b157600080fd5b506103b06105c0366004613aa2565b60008281526009602090815260408083206001600160a01b038516845260030190915290205460ff1692915050565b3480156105fb57600080fd5b506103e361060a3660046139cd565b610f5a565b34801561061b57600080fd5b50610426610fc1565b34801561063057600080fd5b5061064461063f366004613692565b611083565b604080519384526020840192909252908201526060016103bc565b34801561066b57600080fd5b506040805180820190915260018152603160f81b6020820152610426565b34801561069557600080fd5b506103e36106a4366004613ae3565b6110a9565b3480156106b557600080fd5b506103e36106c4366004613b57565b6110d2565b3480156106d557600080fd5b506103e36106e4366004613c11565b611231565b3480156106f557600080fd5b506103e3610704366004613692565b61127b565b34801561071557600080fd5b50610389610724366004613692565b611288565b34801561073557600080fd5b50610389610744366004613ca8565b6112bb565b34801561075557600080fd5b506103e3610764366004613cc5565b6112c3565b34801561077557600080fd5b506103e3610784366004613d1e565b611315565b34801561079557600080fd5b506103e36107a4366004613dd2565b6001600160a01b031660009081526002602052604090205490565b3480156107cb57600080fd5b506107d46113ce565b6040516103bc9796959493929190613e2b565b3480156107f357600080fd5b506103e3611414565b34801561080857600080fd5b50600d54610469906001600160a01b031681565b34801561082857600080fd5b506103e3610837366004613e9b565b61141e565b34801561084857600080fd5b506108516114f0565b60405165ffffffffffff90911681526020016103bc565b34801561087457600080fd5b5060646103e3565b34801561088857600080fd5b506103e3610897366004613eec565b611578565b3480156108a857600080fd5b506103e361158f565b3480156108bd57600080fd5b506103e3611599565b3480156108d257600080fd5b506103896108e1366004613dd2565b6115b3565b3480156108f257600080fd5b506103e36109013660046139cd565b6115c4565b34801561091257600080fd5b506103b0610921366004613692565b6115db565b34801561093257600080fd5b506103e3610941366004613692565b60009081526004602052604090206001015465ffffffffffff1690565b34801561096a57600080fd5b506103e36115e4565b34801561097f57600080fd5b506104a161098e366004613f44565b6115ef565b34801561099f57600080fd5b506103e36109ae366004613692565b611633565b6103896109c1366004613fd7565b611676565b3480156109d257600080fd5b506103e36109e13660046139cd565b6116f6565b3480156109f257600080fd5b50600b546001600160a01b0316610469565b348015610a1057600080fd5b506040805180820190915260208082527f737570706f72743d627261766f2671756f72756d3d666f722c6162737461696e90820152610426565b348015610a5657600080fd5b506103e37ff2aad550cf55f045cb27e9c559f9889fdfb6e6cdaa032301d6ea397784ae51d781565b348015610a8a57600080fd5b50610389610a9936600461401a565b611730565b348015610aaa57600080fd5b50610389610ab9366004613692565b611741565b348015610aca57600080fd5b506103e3610ad9366004614040565b61176b565b348015610aea57600080fd5b50610389610af9366004613692565b61178c565b348015610b0a57600080fd5b506104a1610b1936600461406c565b6117bf565b348015610b2a57600080fd5b506103e3610b39366004613692565b611803565b348015610b4a57600080fd5b507f0000000000000000000000000000000000000000000000000000000000000000610469565b6000610b85600b546001600160a01b031690565b905090565b60006001600160e01b031982166366defe7760e11b1480610bbb57506001600160e01b031982166332a2ad4360e11b145b80610bd657506001600160e01b03198216630271189760e51b145b80610bf157506301ffc9a760e01b6001600160e01b03198316145b92915050565b610bff61180e565b610c0881611888565b50565b606060038054610c1a906140d4565b80601f0160208091040260200160405190810160405280929190818152602001828054610c46906140d4565b8015610c935780601f10610c6857610100808354040283529160200191610c93565b820191906000526020600020905b815481529060010190602001808311610c7657829003601f168201915b5050505050905090565b600030610ca8610b71565b6001600160a01b031614610ccf57604051637485328f60e11b815260040160405180910390fd5b50630a85bd0160e11b949350505050565b600080610cef868686866115c4565b9050610d0481610cff600461191e565b611941565b506000610d148288888888611980565b905065ffffffffffff811615610d8c57600082815260046020908152604091829020600101805465ffffffffffff191665ffffffffffff85169081179091558251858152918201527f9a2e42fd6722813d69113e7d0079d3d940171428df7373df9c7f7617cfda2892910160405180910390a1610da5565b604051634844252360e11b815260040160405180910390fd5b5095945050505050565b600080610dbe868686866115c4565b9050610dde81610dce600561191e565b610dd8600461191e565b17611941565b506000818152600460205260409020805460ff60f01b1916600160f01b17905530610e07610b71565b6001600160a01b031614610e915760005b8651811015610e8f57306001600160a01b0316878281518110610e3d57610e3d61410e565b60200260200101516001600160a01b031603610e8757610e87858281518110610e6857610e6861410e565b602002602001015180519060200120600561198f90919063ffffffff16565b600101610e18565b505b610e9e81878787876119f1565b30610ea7610b71565b6001600160a01b031614158015610ed357506005546001600160801b03808216600160801b9092041614155b15610ede5760006005555b6040518181527f712ae1383f79ac853f8d882153778e0260ef8f03b504e2866e0593e04d2b291f906020015b60405180910390a195945050505050565b600090815260046020526040902054600160a01b900465ffffffffffff1690565b6000610b8560085465ffffffffffff1690565b6000610bf182611a05565b600080610f69868686866115c4565b905033610f768282611b44565b610faa57604051638fe5d8a960e01b8152600481018390526001600160a01b03821660248201526044015b60405180910390fd5b610fb687878787611b8b565b979650505050505050565b60607f00000000000000000000000000000000000000000000000000000000000000006001600160a01b0316634bf5d7e96040518163ffffffff1660e01b8152600401600060405180830381865afa92505050801561104257506040513d6000823e601f3d908101601f1916820160405261103f9190810190614124565b60015b61107e575060408051808201909152601d81527f6d6f64653d626c6f636b6e756d6265722666726f6d3d64656661756c74000000602082015290565b919050565b6000818152600960205260409020805460018201546002909201549091905b9193909250565b6000803390506110ca84828560405180602001604052806000815250611b99565b949350505050565b6000806111b5876111af7f3e83946653575f9a39005e1545185629e92736b7528ab20ca3816f315424a8118c8c8c6111278e6001600160a01b0316600090815260026020526040902080546001810190915590565b8d8d604051611137929190614191565b60405180910390208c805190602001206040516020016111949796959493929190968752602087019590955260ff9390931660408601526001600160a01b03919091166060850152608084015260a083015260c082015260e00190565b60405160208183030381529060405280519060200120611bbc565b85611be9565b9050806111e0576040516394ab6c0760e01b81526001600160a01b0388166004820152602401610fa1565b61122489888a89898080601f0160208091040260200160405190810160405280939291908181526020018383808284376000920191909152508b9250611c5d915050565b9998505050505050505050565b600080339050610fb687828888888080601f0160208091040260200160405190810160405280939291908181526020018383808284376000920191909152508a9250611c5d915050565b6000610bf1600a83611d3f565b600d546001600160a01b031633146112b25760405162461bcd60e51b8152600401610fa1906141a1565b610c0881611d8e565b6112b261180e565b60008033905061130b86828787878080601f016020809104026020016040519081016040528093929190818152602001838380828437600092019190915250611b9992505050565b9695505050505050565b6000336113228184611df4565b61134a5760405163d9b3955760e01b81526001600160a01b0382166004820152602401610fa1565b60006113546115e4565b905080156113c157600061138383600161136c6114f0565b61137691906141de565b65ffffffffffff1661176b565b9050818110156113bf57604051636121770b60e11b81526001600160a01b03841660048201526024810182905260448101839052606401610fa1565b505b610fb68787878786611e7a565b6000606080600080600060606113e261209a565b6113ea6120c7565b60408051600080825260208201909252600f60f81b9b939a50919850469750309650945092509050565b6000610b856115e4565b6000806114aa846111af7ff2aad550cf55f045cb27e9c559f9889fdfb6e6cdaa032301d6ea397784ae51d78989896114738b6001600160a01b0316600090815260026020526040902080546001810190915590565b60408051602081019690965285019390935260ff90911660608401526001600160a01b0316608083015260a082015260c001611194565b9050806114d5576040516394ab6c0760e01b81526001600160a01b0385166004820152602401610fa1565b61130b86858760405180602001604052806000815250611b99565b60007f00000000000000000000000000000000000000000000000000000000000000006001600160a01b03166391ddadf46040518163ffffffff1660e01b8152600401602060405180830381865afa92505050801561156c575060408051601f3d908101601f1916820190925261156991810190614204565b60015b61107e57610b856120f4565b60006115858484846120ff565b90505b9392505050565b6000610b85610f3c565b60006115a5600a612195565b6001600160d01b0316905090565b6115bb61180e565b610c08816121dc565b60006115d2858585856116f6565b95945050505050565b60006001610bf1565b6000610b8560075490565b6000306115fa610b71565b6001600160a01b03161461162157604051637485328f60e11b815260040160405180910390fd5b5063bc197c8160e01b95945050505050565b60008181526004602052604081205461166890600160d01b810463ffffffff1690600160a01b900465ffffffffffff16614221565b65ffffffffffff1692915050565b61167e61180e565b600080856001600160a01b031685858560405161169c929190614191565b60006040518083038185875af1925050503d80600081146116d9576040519150601f19603f3d011682016040523d82523d6000602084013e6116de565b606091505b50915091506116ed8282612245565b50505050505050565b60008484848460405160200161170f94939291906142d4565b60408051601f19818403018152919052805160209091012095945050505050565b61173861180e565b610c0881612261565b600d546001600160a01b031633146117385760405162461bcd60e51b8152600401610fa1906141a1565b6000611588838361178760408051602081019091526000815290565b6120ff565b600d546001600160a01b031633146117b65760405162461bcd60e51b8152600401610fa1906141a1565b610c08816122ff565b6000306117ca610b71565b6001600160a01b0316146117f157604051637485328f60e11b815260040160405180910390fd5b5063f23a6e6160e01b95945050505050565b6000610bf182612340565b33611817610b71565b6001600160a01b031614611840576040516347096e4760e01b8152336004820152602401610fa1565b30611849610b71565b6001600160a01b0316146118865760008036604051611869929190614191565b604051809103902090505b8061187f60056123e0565b0361187457505b565b6064808211156118b55760405163243e544560e01b81526004810183905260248101829052604401610fa1565b60006118bf611599565b90506118de6118cc6114f0565b6118d58561244f565b600a9190612487565b505060408051828152602081018590527f0553476bf02ef2726e8ce5ced78d63e26e602e4a2257b1f559418e24b4633997910160405180910390a1505050565b600081600781111561193257611932613a5c565b600160ff919091161b92915050565b60008061194d84610f4f565b905060008361195b8361191e565b1603611588578381846040516331b75e4d60e01b8152600401610fa19392919061431f565b600061130b86868686866124a2565b81546001600160801b03600160801b8204811691811660018301909116036119bb576119bb604161264d565b6001600160801b03808216600090815260018086016020526040909120939093558354919092018216600160801b029116179055565b6119fe858585858561265f565b5050505050565b600080611a11836126f5565b90506005816007811115611a2757611a27613a5c565b14611a325792915050565b6000838152600c60205260409081902054600b549151632c258a9f60e11b81526004810182905290916001600160a01b03169063584b153e90602401602060405180830381865afa158015611a8b573d6000803e3d6000fd5b505050506040513d601f19601f82011682018060405250810190611aaf9190614341565b15611abe575060059392505050565b600b54604051632ab0f52960e01b8152600481018390526001600160a01b0390911690632ab0f52990602401602060405180830381865afa158015611b07573d6000803e3d6000fd5b505050506040513d601f19601f82011682018060405250810190611b2b9190614341565b15611b3a575060079392505050565b5060029392505050565b600080611b5084610f4f565b6007811115611b6157611b61613a5c565b148015611588575050600091825260046020526040909120546001600160a01b0391821691161490565b60006115d28585858561282f565b60006115d285858585611bb760408051602081019091526000815290565b611c5d565b6000610bf1611bc96128ce565b8360405161190160f01b8152600281019290925260228201526042902090565b6000836001600160a01b03163b600003611c4b57600080611c0a85856129f9565b5090925090506000816003811115611c2457611c24613a5c565b148015611c425750856001600160a01b0316826001600160a01b0316145b92505050611588565b611c56848484612a46565b9050611588565b6000611c6d86610cff600161191e565b506000611c8386611c7d89610f1b565b856120ff565b90506000611c948888888588612b21565b90508351600003611ceb57866001600160a01b03167fb8e138887d0aa13bab447e82de9d5c1777041ecd21ca36ba824ff1e6c07ddda489888489604051611cde9493929190614363565b60405180910390a2610fb6565b866001600160a01b03167fe2babfbac5889a709b63bb7f598b324e08bc5a4fb9ec647fb3cbc9ec07eb87128988848989604051611d2c95949392919061438b565b60405180910390a2979650505050505050565b6000806000611d4d85612c24565b9250925050838265ffffffffffff161115611d7a57611d75611d6e85612c80565b8690612cb3565b611d7c565b805b6001600160d01b031695945050505050565b6008546040805165ffffffffffff928316815291831660208301527fc565b045403dc03c2eea82b81a0465edad9e2e7fc4d97e11421c209da93d7a93910160405180910390a16008805465ffffffffffff191665ffffffffffff92909216919091179055565b80516000906034811015611e0c576001915050610bf1565b60131981840101516001600160b01b03198116692370726f706f7365723d60b01b14611e3d57600192505050610bf1565b600080611e4e86602a860386612d5a565b91509150811580610fb65750866001600160a01b0316816001600160a01b031614979650505050505050565b6000611e8f86868686805190602001206115c4565b905084518651141580611ea457508351865114155b80611eae57508551155b15611ee357855184518651604051630447b05d60e41b8152600481019390935260248301919091526044820152606401610fa1565b600081815260046020526040902054600160a01b900465ffffffffffff1615611f2e5780611f1082610f4f565b6040516331b75e4d60e01b8152610fa192919060009060040161431f565b6000611f38610f3c565b611f406114f0565b65ffffffffffff16611f5291906143c5565b90506000611f6d60085463ffffffff600160301b9091041690565b600084815260046020526040902080546001600160a01b0319166001600160a01b038716178155909150611fa083612c80565b815465ffffffffffff91909116600160a01b0265ffffffffffff60a01b19909116178155611fcd82612e09565b815463ffffffff91909116600160d01b0263ffffffff60d01b1990911617815588517f7d84a6263ae0d98d3329bd7b46bb4e8d6f98cd35a7adb45c274c8b7fd5ebd5e090859087908c908c906001600160401b0381111561203057612030613723565b60405190808252806020026020018201604052801561206357816020015b606081526020019060019003908161204e5790505b508c896120708a826143c5565b8e604051612086999897969594939291906143d8565b60405180910390a150505095945050505050565b6060610b857f00000000000000000000000000000000000000000000000000000000000000006000612e3a565b6060610b857f00000000000000000000000000000000000000000000000000000000000000006001612e3a565b6000610b8543612c80565b60007f0000000000000000000000000000000000000000000000000000000000000000604051630748d63560e31b81526001600160a01b038681166004830152602482018690529190911690633a46b1a890604401602060405180830381865afa158015612171573d6000803e3d6000fd5b505050506040513d601f19601f8201168201806040525081019061158591906144af565b805460009080156121d3576121bd836121af6001846144c8565b600091825260209091200190565b54600160301b90046001600160d01b0316611588565b60009392505050565b600b54604080516001600160a01b03928316815291831660208301527f08f74ea46ef7894f65eabfb5e6e695de773a000b47c529ab559178069b226401910160405180910390a1600b80546001600160a01b0319166001600160a01b0392909216919091179055565b60608261225a5761225582612ee5565b610bf1565b5080610bf1565b8063ffffffff1660000361228b5760405163f1cfbf0560e01b815260006004820152602401610fa1565b6008546040805163ffffffff600160301b9093048316815291831660208301527f7e3f7f0708a84de9203036abaa450dccc85ad5ff52f78c170f3edb55cf5e8828910160405180910390a16008805463ffffffff909216600160301b0269ffffffff00000000000019909216919091179055565b60075460408051918252602082018390527fccb45da8d5717e6c4544694297c4ba5cf151d455c9bb0ed4fc7a38411bc05461910160405180910390a1600755565b604051632394e7a360e21b815260048101829052600090610bf1906001600160a01b037f00000000000000000000000000000000000000000000000000000000000000001690638e539e8c90602401602060405180830381865afa1580156123ac573d6000803e3d6000fd5b505050506040513d601f19601f820116820180604052508101906123d091906144af565b6123d98461127b565b6064612f0e565b80546000906001600160801b0380821691600160801b900416810361240957612409603161264d565b6001600160801b038181166000908152600185810160205260408220805492905585546fffffffffffffffffffffffffffffffff19169301909116919091179092555090565b60006001600160d01b03821115612483576040516306dfcc6560e41b815260d0600482015260248101839052604401610fa1565b5090565b600080612495858585612fc3565b915091505b935093915050565b600080600b60009054906101000a90046001600160a01b03166001600160a01b031663f27a0c926040518163ffffffff1660e01b8152600401602060405180830381865afa1580156124f8573d6000803e3d6000fd5b505050506040513d601f19601f8201168201806040525081019061251c91906144af565b905060003060601b6bffffffffffffffffffffffff19168418600b5460405163b1c5f42760e01b81529192506001600160a01b03169063b1c5f4279061256f908a908a908a9060009088906004016144db565b602060405180830381865afa15801561258c573d6000803e3d6000fd5b505050506040513d601f19601f820116820180604052508101906125b091906144af565b6000898152600c602052604080822092909255600b5491516308f2a0bb60e41b81526001600160a01b0390921691638f2a0bb0916125fb918b918b918b919088908a90600401614529565b600060405180830381600087803b15801561261557600080fd5b505af1158015612629573d6000803e3d6000fd5b50505050612641824261263c91906143c5565b612c80565b98975050505050505050565b634e487b71600052806020526024601cfd5b600b546001600160a01b031663e38335e53486868660003060601b6bffffffffffffffffffffffff191688186040518763ffffffff1660e01b81526004016126ab9594939291906144db565b6000604051808303818588803b1580156126c457600080fd5b505af11580156126d8573d6000803e3d6000fd5b50505060009687525050600c602052505060408320929092555050565b6000818152600460205260408120805460ff600160f01b8204811691600160f81b900416811561272a57506007949350505050565b801561273b57506002949350505050565b600061274686610f1b565b90508060000361276c57604051636ad0607560e01b815260048101879052602401610fa1565b60006127766114f0565b65ffffffffffff169050808210612794575060009695505050505050565b600061279f88611633565b90508181106127b657506001979650505050505050565b6127bf88613117565b15806127df57506000888152600960205260409020805460019091015411155b156127f257506003979650505050505050565b60008881526004602052604090206001015465ffffffffffff1660000361282157506004979650505050505050565b506005979650505050505050565b60008061283e8686868661314e565b6000818152600c60205260409020549091508015610da557600b5460405163c4d252f560e01b8152600481018390526001600160a01b039091169063c4d252f590602401600060405180830381600087803b15801561289c57600080fd5b505af11580156128b0573d6000803e3d6000fd5b5050506000838152600c602052604081205550509050949350505050565b6000306001600160a01b037f00000000000000000000000000000000000000000000000000000000000000001614801561292757507f000000000000000000000000000000000000000000000000000000000000000046145b1561295157507f000000000000000000000000000000000000000000000000000000000000000090565b610b85604080517f8b73c3c69bb8fe3d512ecc4cf759cc79239f7b179b0ffacaa9a75d522b39400f60208201527f0000000000000000000000000000000000000000000000000000000000000000918101919091527f000000000000000000000000000000000000000000000000000000000000000060608201524660808201523060a082015260009060c00160405160208183030381529060405280519060200120905090565b60008060008351604103612a335760208401516040850151606086015160001a612a25888285856131ff565b955095509550505050612a3f565b50508151600091506002905b9250925092565b6000806000856001600160a01b03168585604051602401612a68929190614581565b60408051601f198184030181529181526020820180516001600160e01b0316630b135d3f60e11b17905251612a9d919061459a565b600060405180830381855afa9150503d8060008114612ad8576040519150601f19603f3d011682016040523d82523d6000602084013e612add565b606091505b5091509150818015612af157506020815110155b801561130b57508051630b135d3f60e11b90612b1690830160209081019084016144af565b149695505050505050565b60008581526009602090815260408083206001600160a01b03881684526003810190925282205460ff1615612b74576040516371c6af4960e01b81526001600160a01b0387166004820152602401610fa1565b6001600160a01b03861660009081526003820160205260409020805460ff1916600117905560ff8516612bc05783816000016000828254612bb591906143c5565b90915550612c199050565b60001960ff861601612be05783816001016000828254612bb591906143c5565b60011960ff861601612c005783816002016000828254612bb591906143c5565b6040516303599be160e11b815260040160405180910390fd5b509195945050505050565b805460009081908190808203612c45576000806000935093509350506110a2565b6000612c56866121af6001856144c8565b546001955065ffffffffffff81169450600160301b90046001600160d01b031692506110a2915050565b600065ffffffffffff821115612483576040516306dfcc6560e41b81526030600482015260248101839052604401610fa1565b815460009081816005811115612d12576000612cce846132ce565b612cd890856144c8565b60008881526020902090915081015465ffffffffffff9081169087161015612d0257809150612d10565b612d0d8160016143c5565b92505b505b6000612d2087878585613427565b90508015612d4d57612d37876121af6001846144c8565b54600160301b90046001600160d01b0316610fb6565b5060009695505050505050565b6000808451831180612d6b57508284115b15612d7b5750600090508061249a565b6000612d888560016143c5565b84118015612db0575061060f60f31b612da48787016020015190565b6001600160f01b031916145b90506000612dc182151560026145b6565b612dcc9060286143c5565b905080612dd987876144c8565b03612dfb57600080612dec898989613489565b909650945061249a9350505050565b60008093509350505061249a565b600063ffffffff821115612483576040516306dfcc6560e41b81526020600482015260248101839052604401610fa1565b606060ff8314612e5457612e4d8361354f565b9050610bf1565b818054612e60906140d4565b80601f0160208091040260200160405190810160405280929190818152602001828054612e8c906140d4565b8015612ed95780601f10612eae57610100808354040283529160200191612ed9565b820191906000526020600020905b815481529060010190602001808311612ebc57829003601f168201915b50505050509050610bf1565b805115612ef55780518082602001fd5b60405163d6bda27560e01b815260040160405180910390fd5b6000806000612f1d868661358e565b9150915081600003612f4257838181612f3857612f386145cd565b0492505050611588565b818411612f5957612f59600385150260111861264d565b6000848688096000868103871696879004966002600389028118808a02820302808a02820302808a02820302808a02820302808a02820302808a02909103029181900381900460010185841190960395909502919093039390930492909217029150509392505050565b8254600090819080156130bc576000612fe1876121af6001856144c8565b805490915065ffffffffffff80821691600160301b90046001600160d01b031690881682111561302457604051632520601d60e01b815260040160405180910390fd5b8765ffffffffffff168265ffffffffffff160361305d57825465ffffffffffff16600160301b6001600160d01b038916021783556130ae565b6040805180820190915265ffffffffffff808a1682526001600160d01b03808a1660208085019182528d54600181018f5560008f81529190912094519151909216600160301b029216919091179101555b945085935061249a92505050565b50506040805180820190915265ffffffffffff80851682526001600160d01b0380851660208085019182528854600181018a5560008a815291822095519251909316600160301b02919093161792019190915590508161249a565b60008181526009602052604081206002810154600182015461313991906143c5565b613145610b3985610f1b565b11159392505050565b60008061315d868686866115c4565b90506131ab8161316d600761191e565b613177600661191e565b613181600261191e565b600161318e6007826145e3565b6131999060026146e0565b6131a391906144c8565b181818611941565b506000818152600460205260409081902080546001600160f81b0316600160f81b179055517f789cf55be980739dad1d0699b93b58e806b51c9d96619bfa8fe0a28abaa7b30c90610f0a9083815260200190565b600080807f7fffffffffffffffffffffffffffffff5d576e7357a4501ddfe92f46681b20a084111561323a57506000915060039050826132c4565b604080516000808252602082018084528a905260ff891692820192909252606081018790526080810186905260019060a0016020604051602081039080840390855afa15801561328e573d6000803e3d6000fd5b5050604051601f1901519150506001600160a01b0381166132ba575060009250600191508290506132c4565b9250600091508190505b9450945094915050565b6000600182116132dc575090565b816001600160801b82106132f55760809190911c9060401b5b6801000000000000000082106133105760409190911c9060201b5b64010000000082106133275760209190911c9060101b5b62010000821061333c5760109190911c9060081b5b61010082106133505760089190911c9060041b5b601082106133635760049190911c9060021b5b6004821061336f5760011b5b600302600190811c90818581613387576133876145cd565b048201901c9050600181858161339f5761339f6145cd565b048201901c905060018185816133b7576133b76145cd565b048201901c905060018185816133cf576133cf6145cd565b048201901c905060018185816133e7576133e76145cd565b048201901c905060018185816133ff576133ff6145cd565b048201901c905061341e818581613418576134186145cd565b04821190565b90039392505050565b60005b8183101561348157600061343e84846135ac565b60008781526020902090915065ffffffffffff86169082015465ffffffffffff16111561346d5780925061347b565b6134788160016143c5565b93505b5061342a565b509392505050565b60008084816134998660016143c5565b851180156134c1575061060f60f31b6134b58388016020015190565b6001600160f01b031916145b905060006134d282151560026145b6565b90506000806134e1838a6143c5565b90505b8781101561353e5760006135036134fe8784016020015190565b6135c7565b9050600f8160ff161115613523576000809750975050505050505061249a565b61352e6010846145b6565b60ff9091160191506001016134e4565b506001999098509650505050505050565b6060600061355c83613640565b604080516020808252818301909252919250600091906020820181803683375050509182525060208101929092525090565b60008060001983850993909202808410938190039390930393915050565b60006135bb60028484186146ef565b611588908484166143c5565b600060f882901c602f811180156135e15750603a8160ff16105b156135ef57602f1901610bf1565b60608160ff16118015613605575060678160ff16105b156136135760561901610bf1565b60408160ff16118015613629575060478160ff16105b156136375760361901610bf1565b5060ff92915050565b600060ff8216601f811115610bf157604051632cd44ac360e21b815260040160405180910390fd5b60006020828403121561367a57600080fd5b81356001600160e01b03198116811461158857600080fd5b6000602082840312156136a457600080fd5b5035919050565b60005b838110156136c65781810151838201526020016136ae565b50506000910152565b600081518084526136e78160208601602086016136ab565b601f01601f19169290920160200192915050565b60208152600061158860208301846136cf565b6001600160a01b0381168114610c0857600080fd5b634e487b7160e01b600052604160045260246000fd5b604051601f8201601f191681016001600160401b038111828210171561376157613761613723565b604052919050565b60006001600160401b0382111561378257613782613723565b50601f01601f191660200190565b60006137a361379e84613769565b613739565b90508281528383830111156137b757600080fd5b828260208301376000602084830101529392505050565b600082601f8301126137df57600080fd5b61158883833560208501613790565b6000806000806080858703121561380457600080fd5b843561380f8161370e565b9350602085013561381f8161370e565b92506040850135915060608501356001600160401b0381111561384157600080fd5b61384d878288016137ce565b91505092959194509250565b60006001600160401b0382111561387257613872613723565b5060051b60200190565b600082601f83011261388d57600080fd5b8135602061389d61379e83613859565b8083825260208201915060208460051b8701019350868411156138bf57600080fd5b602086015b848110156138e45780356138d78161370e565b83529183019183016138c4565b509695505050505050565b600082601f83011261390057600080fd5b8135602061391061379e83613859565b8083825260208201915060208460051b87010193508684111561393257600080fd5b602086015b848110156138e45780358352918301918301613937565b600082601f83011261395f57600080fd5b8135602061396f61379e83613859565b82815260059290921b8401810191818101908684111561398e57600080fd5b8286015b848110156138e45780356001600160401b038111156139b15760008081fd5b6139bf8986838b01016137ce565b845250918301918301613992565b600080600080608085870312156139e357600080fd5b84356001600160401b03808211156139fa57600080fd5b613a068883890161387c565b95506020870135915080821115613a1c57600080fd5b613a28888389016138ef565b94506040870135915080821115613a3e57600080fd5b50613a4b8782880161394e565b949793965093946060013593505050565b634e487b7160e01b600052602160045260246000fd5b60088110613a9057634e487b7160e01b600052602160045260246000fd5b9052565b60208101610bf18284613a72565b60008060408385031215613ab557600080fd5b823591506020830135613ac78161370e565b809150509250929050565b803560ff8116811461107e57600080fd5b60008060408385031215613af657600080fd5b82359150613b0660208401613ad2565b90509250929050565b60008083601f840112613b2157600080fd5b5081356001600160401b03811115613b3857600080fd5b602083019150836020828501011115613b5057600080fd5b9250929050565b600080600080600080600060c0888a031215613b7257600080fd5b87359650613b8260208901613ad2565b95506040880135613b928161370e565b945060608801356001600160401b0380821115613bae57600080fd5b613bba8b838c01613b0f565b909650945060808a0135915080821115613bd357600080fd5b613bdf8b838c016137ce565b935060a08a0135915080821115613bf557600080fd5b50613c028a828b016137ce565b91505092959891949750929550565b600080600080600060808688031215613c2957600080fd5b85359450613c3960208701613ad2565b935060408601356001600160401b0380821115613c5557600080fd5b613c6189838a01613b0f565b90955093506060880135915080821115613c7a57600080fd5b50613c87888289016137ce565b9150509295509295909350565b65ffffffffffff81168114610c0857600080fd5b600060208284031215613cba57600080fd5b813561158881613c94565b60008060008060608587031215613cdb57600080fd5b84359350613ceb60208601613ad2565b925060408501356001600160401b03811115613d0657600080fd5b613d1287828801613b0f565b95989497509550505050565b60008060008060808587031215613d3457600080fd5b84356001600160401b0380821115613d4b57600080fd5b613d578883890161387c565b95506020870135915080821115613d6d57600080fd5b613d79888389016138ef565b94506040870135915080821115613d8f57600080fd5b613d9b8883890161394e565b93506060870135915080821115613db157600080fd5b508501601f81018713613dc357600080fd5b61384d87823560208401613790565b600060208284031215613de457600080fd5b81356115888161370e565b60008151808452602080850194506020840160005b83811015613e2057815187529582019590820190600101613e04565b509495945050505050565b60ff60f81b8816815260e060208201526000613e4a60e08301896136cf565b8281036040840152613e5c81896136cf565b606084018890526001600160a01b038716608085015260a0840186905283810360c08501529050613e8d8185613def565b9a9950505050505050505050565b60008060008060808587031215613eb157600080fd5b84359350613ec160208601613ad2565b92506040850135613ed18161370e565b915060608501356001600160401b0381111561384157600080fd5b600080600060608486031215613f0157600080fd5b8335613f0c8161370e565b92506020840135915060408401356001600160401b03811115613f2e57600080fd5b613f3a868287016137ce565b9150509250925092565b600080600080600060a08688031215613f5c57600080fd5b8535613f678161370e565b94506020860135613f778161370e565b935060408601356001600160401b0380821115613f9357600080fd5b613f9f89838a016138ef565b94506060880135915080821115613fb557600080fd5b613fc189838a016138ef565b93506080880135915080821115613c7a57600080fd5b60008060008060608587031215613fed57600080fd5b8435613ff88161370e565b93506020850135925060408501356001600160401b03811115613d0657600080fd5b60006020828403121561402c57600080fd5b813563ffffffff8116811461158857600080fd5b6000806040838503121561405357600080fd5b823561405e8161370e565b946020939093013593505050565b600080600080600060a0868803121561408457600080fd5b853561408f8161370e565b9450602086013561409f8161370e565b9350604086013592506060860135915060808601356001600160401b038111156140c857600080fd5b613c87888289016137ce565b600181811c908216806140e857607f821691505b60208210810361410857634e487b7160e01b600052602260045260246000fd5b50919050565b634e487b7160e01b600052603260045260246000fd5b60006020828403121561413657600080fd5b81516001600160401b0381111561414c57600080fd5b8201601f8101841361415d57600080fd5b805161416b61379e82613769565b81815285602083850101111561418057600080fd5b6115d28260208301602086016136ab565b8183823760009101908152919050565b6020808252600d908201526c2737ba103a34329037bbb732b960991b604082015260600190565b634e487b7160e01b600052601160045260246000fd5b65ffffffffffff8281168282160390808211156141fd576141fd6141c8565b5092915050565b60006020828403121561421657600080fd5b815161158881613c94565b65ffffffffffff8181168382160190808211156141fd576141fd6141c8565b60008151808452602080850194506020840160005b83811015613e205781516001600160a01b031687529582019590820190600101614255565b60008282518085526020808601955060208260051b8401016020860160005b848110156142c757601f198684030189526142b58383516136cf565b98840198925090830190600101614299565b5090979650505050505050565b6080815260006142e76080830187614240565b82810360208401526142f98187613def565b9050828103604084015261430d818661427a565b91505082606083015295945050505050565b838152606081016143336020830185613a72565b826040830152949350505050565b60006020828403121561435357600080fd5b8151801515811461158857600080fd5b84815260ff8416602082015282604082015260806060820152600061130b60808301846136cf565b85815260ff8516602082015283604082015260a0606082015260006143b360a08301856136cf565b828103608084015261264181856136cf565b80820180821115610bf157610bf16141c8565b60006101208b8352602060018060a01b038c16818501528160408501526144018285018c614240565b91508382036060850152614415828b613def565b915083820360808501528189518084528284019150828160051b850101838c0160005b8381101561446657601f198784030185526144548383516136cf565b94860194925090850190600101614438565b505086810360a088015261447a818c61427a565b9450505050508560c08401528460e084015282810361010084015261449f81856136cf565b9c9b505050505050505050505050565b6000602082840312156144c157600080fd5b5051919050565b81810381811115610bf157610bf16141c8565b60a0815260006144ee60a0830188614240565b82810360208401526145008188613def565b90508281036040840152614514818761427a565b60608401959095525050608001529392505050565b60c08152600061453c60c0830189614240565b828103602084015261454e8189613def565b90508281036040840152614562818861427a565b60608401969096525050608081019290925260a0909101529392505050565b82815260406020820152600061158560408301846136cf565b600082516145ac8184602087016136ab565b9190910192915050565b8082028115828204841417610bf157610bf16141c8565b634e487b7160e01b600052601260045260246000fd5b60ff8181168382160190811115610bf157610bf16141c8565b600181815b8085111561463757816000190482111561461d5761461d6141c8565b8085161561462a57918102915b93841c9390800290614601565b509250929050565b60008261464e57506001610bf1565b8161465b57506000610bf1565b8160018114614671576002811461467b57614697565b6001915050610bf1565b60ff84111561468c5761468c6141c8565b50506001821b610bf1565b5060208310610133831016604e8410600b84101617156146ba575081810a610bf1565b6146c483836145fc565b80600019048211156146d8576146d86141c8565b029392505050565b600061158860ff84168361463f565b60008261470c57634e487b7160e01b600052601260045260246000fd5b50049056fea2646970667358221220436523bac92455fd7c164681ca6d232be3944866d564bebcf003a1be26ddd52c64736f6c63430008160033",
  "linkReferences": {},
  "deployedLinkReferences": {}
}